:020000040000FA
:100000000C945D000C9485000C9485000C94850084
:100010000C9485000C9485000C9485000C9485004C
:100020000C9485000C9485000C9485000C9485003C
:100030000C9485000C9485000C9485000C9485002C
:100040000C9448050C9485000C94B8050C9492050A
:100050000C9485000C9485000C9485000C9485000C
:100060000C9485000C94850000000008000201003B
:100070000003040700000000000000000000000072
:10008000250028002B0000000000240027002A0083
:10009000040404040404040402020202020203032E
:1000A0000303030301020408102040800102040836
:1000B0001020010204081020EA0511241FBECFEF12
:1000C000D8E0DEBFCDBF11E0A0E0B1E0E4EFF9E1A0
:1000D00002C005900D92AE37B107D9F722E0AEE726
:1000E000B1E001C01D92A635B207E1F710E0CDE501
:1000F000D0E004C02197FE010E94F20CCC35D1075C
:10010000C9F70E9434060C94F80C0C94000090E09F
:10011000FC01EC55FF4F249180579F4FFC018491C7
:10012000882399F090E0880F991FFC01EA57FF4F50
:10013000A591B491FC01E458FF4F859194918FB73C
:10014000F894EC91E22BEC938FBF089590E0FC01C2
:10015000E859FF4F2491FC01EC55FF4F3491FC010D
:10016000E057FF4FE491EE23C9F0222339F023300A
:1001700001F1A8F4213019F1223029F1F0E0EE0F5D
:10018000FF1FE458FF4FA591B4918FB7F894EC91FD
:10019000611126C030953E233C938FBF08952730D0
:1001A000A9F02830C9F0243049F7809180008F7D74
:1001B00003C0809180008F7780938000DFCF84B56B
:1001C0008F7784BDDBCF84B58F7DFBCF8091B0006E
:1001D0008F778093B000D2CF8091B0008F7DF9CF20
:1001E0003E2BDACF8E3008F08E508770806480937B
:1001F0007C0080917A00806480937A0080917A00FC
:1002000086FDFCCF809178009091790008953FB7EA
:10021000F89480919D0190919E01A0919F01B091D1
:10022000A00126B5A89B05C02F3F19F00196A11D7E
:10023000B11D3FBFBA2FA92F982F8827BC01CD0130
:10024000620F711D811D911D42E0660F771F881F8F
:10025000991F4A95D1F708958F929F92AF92BF92BE
:10026000CF92DF92EF92FF924B015C010E94070157
:100270006B017C010E9407016C197D098E099F09A1
:10028000683E734081059105A8F321E0821A910828
:10029000A108B10888EEC80E83E0D81EE11CF11C4D
:1002A00081149104A104B10429F7FF90EF90DF902D
:1002B000CF90BF90AF909F908F900895AF92BF92D4
:1002C000CF92DF92EF92FF920F931F93CF93DF9322
:1002D0006C017B018B01040F151FEB015E01AE1851
:1002E000BF08C017D10759F06991D601ED91FC9173
:1002F0000190F081E02DC6010995892B79F7C501A0
:10030000DF91CF911F910F91FF90EF90DF90CF90F1
:10031000BF90AF900895FC01538D448D252F30E0A0
:10032000842F90E0821B930B541710F0CF96089502
:1003300001970895FC01918D828D981761F0A28D2F
:10034000AE0FBF2FB11D5D968C91928D9F5F9F73F5
:10035000928F90E008958FEF9FEF0895FC01918DAB
:10036000828D981731F0828DE80FF11D858D90E018
:1003700008958FEF9FEF0895FC01918D228D892FB5
:1003800090E0805C9F4F821B91098F73992708959D
:1003900081EA91E00E94BC0121E0892B09F420E070
:1003A000822F089580E090E0892B29F00E94C801F7
:1003B00081110C9400000895FC01A48DA80FB92FA1
:1003C000B11DA35ABF4F2C91848D90E001968F737D
:1003D0009927848FA689B7892C93A089B1898C919C
:1003E000837080648C93938D848D981306C00288EB
:1003F000F389E02D80818F7D80830895EF92FF92B5
:100400000F931F93CF93DF93EC0181E0888F9B8D37
:100410008C8D98131AC0E889F989808185FF15C0F1
:100420009FB7F894EE89FF896083E889F989808114
:100430008370806480839FBF81E090E0DF91CF91E3
:100440001F910F91FF90EF900895F62E0B8D10E005
:100450000F5F1F4F0F731127E02E8C8D8E110CC074
:100460000FB607FCFACFE889F989808185FFF5CFBF
:10047000CE010E94DC01F1CFEB8DEC0FFD2FF11DC1
:10048000E35AFF4FF0829FB7F8940B8FEA89FB89FC
:1004900080818062CFCFCF93DF93EC01888D88235A
:1004A000B9F0AA89BB89E889F9898C9185FD03C0D7
:1004B000808186FD0DC00FB607FCF7CF8C9185FFBC
:1004C000F2CF808185FFEDCFCE010E94DC01E9CF24
:1004D000DF91CF910895089590E080E00895CF9343
:1004E000DF93EC0160E08E810E94A60061E08E81C6
:1004F0000E94A60060E08E810E94A6008BE891E039
:100500000197F1F7DF91CF910895CF92DF92EF92AB
:10051000FF920F931F93CF93DF936C017C0187E0D1
:10052000E80EF11CD0E0C0E0062F10E0B8010C2E60
:1005300002C0759567950A94E2F76170F7018191A1
:100540007F010E94A6002196C430D10579F7C6012B
:10055000DF91CF911F910F91FF90EF90DF90CF909F
:100560000C946F02CF92DF92EF92FF920F931F9342
:10057000CF93DF93EC01F62E642F8C810E94A600AE
:100580008D818F3F19F060E00E94A6000F2D10E0D2
:100590008F8584FF25C06E0187E0C80ED11CF12C29
:1005A000E12CB8010E2C02C0759567950A94E2F70C
:1005B0006170F60181916F010E94A600FFEFEF1AB2
:1005C000FF0A88E0E816F10461F7CE01DF91CF91D0
:1005D0001F910F91FF90EF90DF90CF900C946F02DE
:1005E000B80184E0759567958A95E1F7CE010E9480
:1005F00085026F2DCE01DF91CF911F910F91FF905A
:10060000EF90DF90CF900C94850240E0682F8EE34E
:1006100092E00C94B20281E00E9405038BE39FE11B
:100620000197F1F70895CF93DF93823029F49091E9
:100630004D02986090934D028093510210925202A5
:1006400080E48093530280E18093540280E580939C
:100650005502809142020E948700809143028F3FA1
:1006600011F00E948700809144020E948700CEE32F
:10067000D2E09E012E53324080914D0284FD0AC08B
:1006800084E090E02196281739073CF48E810E947F
:100690008700EFCF88E090E0F5CF8BE39DE00197F6
:1006A000F1F760E0809142020E94A60060E0809134
:1006B00044020E94A600809143028F3F19F060E03F
:1006C0000E94A60080914D0284FD34C063E08EE359
:1006D00092E00E948502CBE4D6E4CE010197F1F7C7
:1006E00063E08EE392E00E9485022197F1F763E0D8
:1006F0008EE392E00E94850283E592E00197F1F794
:1007000062E08EE392E00E94850280914D02806259
:100710000E94050384E080934E028CE00E94050352
:100720000E940B0382E080934F0286E0DF91CF911D
:100730000C94050380620E9405038BE496E4019704
:10074000F1F780914D0280620E94050383E592E0FB
:100750000197F1F780914D0280620E940503D5CF89
:1007600090915102691710F06FEF690FE62FF0E0DA
:10077000E25CFD4F9489890F80680C94050341E089
:100780000E94B20281E090E008950F931F93CF93EF
:10079000DF938B0128E0829FC001112480640E94B6
:1007A0000503E801085F1F4F69918EE392E00E9404
:1007B000BF03C017D107C1F7DF91CF911F910F91F0
:1007C00008956AE071E080E00E94C50360E080E087
:1007D0000E94B00360E08EE392E00E94BF0360E0FD
:1007E00071E081E00E94C5036CE271E080E090E07E
:1007F0000E942C0160E080E00E94B00361E08EE383
:1008000092E00E94BF0366E970E080E090E00C9403
:100810002C0180E00E94F20081399140D4F180E007
:100820000E94F2008A389240A4F581E00E94F20012
:100830008139914074F181E00E94F2008A3892403F
:1008400044F56AE071E080E00E94C50361E080E069
:100850000E94B00360E08EE392E00E94BF0360E07C
:1008600071E081E00E94C5036CE271E080E090E0FD
:100870000E942C0161E080E00E94B00361E08EE301
:1008800092E00E94BF0366E970E080E090E00C9483
:100890002C0108956115710579F0FB01019000208C
:1008A000E9F73197AF01461B570BDC01ED91FC9145
:1008B0000280F381E02D099490E080E008958F920A
:1008C0009F92AF92BF92EF92FF920F931F93CF939D
:1008D000DF93CDB7DEB7A1970FB6F894DEBF0FBE9A
:1008E000CDBF7C01FA01CB0119A2223008F42AE025
:1008F0008E010F5D1F4F822E912CB12CA12CBF01B8
:10090000A50194010E94C10CF901CA016A30ECF4FE
:10091000605DD8016E938D01232B242B252B79F755
:10092000BD01C7010E944A04A1960FB6F894DEBF2C
:100930000FBECDBFDF91CF911F910F91FF90EF9030
:10094000BF90AF909F908F900895695CE2CFCF9257
:10095000DF92EF92FF920F931F93CF93DF93EC01FF
:100960006A017B01E881F9810190F081E02D6DE25F
:1009700009958C0144275527BA014C195D096E0968
:100980007F092AE0CE010E945F04800F911FDF9152
:10099000CF911F910F91FF90EF90DF90CF9008952E
:1009A000AB01770F660B770B77FD0C94A7042AE059
:1009B0000C945F0464E171E084E00E94C50360E090
:1009C00080E00E94B00364E08EE392E00E94BF03E7
:1009D0006CE171E083E00E94C50361E080E00E9469
:1009E000B00363E08EE392E00E94BF0368EC70E026
:1009F00080E090E00E942C0164E271E082E00E94BD
:100A0000C50361E080E00E94B00362E08EE392E003
:100A10000E94BF0368EC70E080E090E00E942C012F
:100A200061E080E00E94B0036AE071E080E00E9433
:100A3000C50360E08EE392E00E94BF0360E080E0C7
:100A40000E94B00361E771E08EE392E00C944A04E7
:100A5000CF93DF93AC01990F660B770B77FF12C032
:100A600081EA91E00E94A704EC0142E050E06CE5CD
:100A700071E081EA91E00E945E018C0F9D1FDF9181
:100A8000CF9108952AE081EA91E00E945F04ECCFC3
:100A90001F920F920FB60F9211242F933F938F93B3
:100AA0009F93AF93BF938091990190919A01A091E8
:100AB0009B01B0919C013091980123E0230F2D37C9
:100AC00058F50196A11DB11D2093980180939901BD
:100AD00090939A01A0939B01B0939C0180919D01FA
:100AE00090919E01A0919F01B091A0010196A11D3E
:100AF000B11D80939D0190939E01A0939F01B0939F
:100B0000A001BF91AF919F918F913F912F910F9035
:100B10000FBE0F901F90189526E8230F0296A11D77
:100B2000B11DD2CF1F920F920FB60F9211242F93A7
:100B30003F934F935F936F937F938F939F93AF9365
:100B4000BF93EF93FF9381EA91E00E94DC01FF9154
:100B5000EF91BF91AF919F918F917F916F915F9135
:100B60004F913F912F910F900FBE0F901F901895AE
:100B70001F920F920FB60F9211242F938F939F9372
:100B8000EF93FF93E091B101F091B2018081E09188
:100B9000B701F091B80182FD1BC090818091BA012C
:100BA0008F5F8F732091BB01821741F0E091BA01F2
:100BB000F0E0EF55FE4F958F8093BA01FF91EF91D2
:100BC0009F918F912F910F900FBE0F901F901895AE
:100BD0008081F4CFE1EAF1E01382128288EE93E0A3
:100BE000A0E0B0E084839583A683B78382E491E09C
:100BF0009183808385EC90E09587848784EC90E0F6
:100C00009787868780EC90E0918B808B81EC90E0D9
:100C1000938B828B82EC90E0958B848B86EC90E0BA
:100C2000978B868B118E128E138E148EEEE3F2E06C
:100C30001382128284E591E0918380838BE0848328
:100C40008FEF85838AE0868385E0878384E08087D1
:100C500083E0818782E08287138614861586168654
:100C6000178681E00C941303CF93DF93CDB7DEB7E3
:100C700028970FB6F894DEBF0FBECDBF789484B529
:100C8000826084BD84B5816084BD85B5826085BD88
:100C900085B5816085BD80916E00816080936E0016
:100CA0001092810080918100826080938100809108
:100CB00081008160809381008091800081608093B9
:100CC00080008091B10084608093B1008091B00079
:100CD00081608093B00080917A00846080937A0074
:100CE00080917A00826080937A0080917A0081609E
:100CF00080937A0080917A00806880937A001092C5
:100D0000C10082E00E941303E091B101F091B201B1
:100D100082E08083E091AD01F091AE011082E0911C
:100D2000AF01F091B0018FEC80831092B901E09196
:100D3000B501F091B60186E08083E091B301F091B6
:100D4000B401808180618083E091B301F091B401AE
:100D5000808188608083E091B301F091B40180814B
:100D600080688083E091B301F091B40180818F7D30
:100D700080832FB7F8946091990170919A018091C6
:100D80009B0190919C012FBF611571058105910513
:100D900011F00E94860C66246394712C8091960158
:100DA00090919701892B31F560E085E00E94B003B6
:100DB0006FE571E08EE392E00E944A0460ED77E017
:100DC00080E090E00E942C010E940B0360E088E02C
:100DD0000E94B00365E671E08EE392E00E944A044F
:100DE00060E08EE00E94B00370E060E08EE392E08D
:100DF0000E94D0040E94370C25E030E040E050E033
:100E00000E948F0C6F5F7F4F8F4F9F4F70939501A4
:100E1000609394010E94370C27E030E040E050E0FE
:100E20000E948F0C6F5F7F4F8F4F9F4F7093930186
:100E3000609392010E94370C26E030E040E050E0E1
:100E40000E948F0C6F5F7F4F8F4F9F4F7093910168
:100E50006093900180919401909195010E942805E2
:100E600080919201909193010E94280580919001B8
:100E7000909191010E94280520919001309191015B
:100E80003A8329834090920150909301809194017C
:100E90009091950198878F8362E371E086E00E94CC
:100EA000C5032FE030E030933101209330013093BF
:100EB0002F0120932E0130932D0120932C011092AD
:100EC0008D0110928C0110928B0110928A01098180
:100ED0001A8100951095EF80F884E094F0948DEFDE
:100EE0009FEF2F813885821B930B9C838B8362013C
:100EF000C094D0948DEF9FEF841995099E838D83C4
:100F00002C5F3F4F59012F813885235F3F4F1901D7
:100F100080912E0190912F010817190709F45CC0E8
:100F20002091300130913101E216F30631F42B812A
:100F30003C81309331012093300120912C0130917C
:100F40002D01C216D30631F42D813E8130932D013F
:100F500020932C0110928901109288012091300178
:100F6000309131012F3F3F4F51F020912C013091B2
:100F70002D012F3F3F4F19F0019609F04EC080918F
:100F8000860190918701892B09F047C070928F01EB
:100F900060928E010E940B0361E083E00E94B00327
:100FA0006BE671E08EE392E00E944A0461E08AE021
:100FB0000E94B00360918401709185018EE392E0FC
:100FC0000E94D00460E083E00E94B00363E771E018
:100FD0008EE392E00E944A0480918E0190918F01ED
:100FE000019771F460E177E280E090E00E942C01CB
:100FF00080914E028B7F80934E0288600E94050391
:1010000080E090E0892B09F4C9CE0E94C8018823B2
:1010100009F4C4CE0E940000C1CE81E00E94F2001B
:10102000181619060CF073C081E00E94F200883C8B
:1010300091050CF06CC064E271E082E00E94C5038F
:1010400061E080E00E94B00362E08EE392E00E94E3
:10105000BF0368EC70E080E090E00E942C016CE13E
:1010600071E083E00E94C50361E080E00E94B0036C
:1010700063E08EE392E00E94BF0364E171E084E0EC
:101080000E94C50360E080E00E94B00364E08EE34C
:1010900092E00E94BF0368EC70E080E090E00E9464
:1010A0002C0164E271E082E00E94C50360E080E010
:1010B0000E94B00362E08EE392E00E94BF0364E608
:1010C00070E080E090E00E942C0164E271E082E038
:1010D0000E94C50360E080E00E94B00362E08EE3FE
:1010E00092E00E94BF0361E080E00E94B00361E7EC
:1010F00071E08EE392E00E944A0460E971E080E0D2
:1011000090E00E942C0170928901609288012091E8
:101110008801309189012130310509F0B0C00E9469
:10112000E103809186019091870101969093870158
:101130008093860180918201909183010196909322
:101140008301809382018090300190903101E814F6
:10115000F904E9F061E0882D0E94B00366E08EE3B7
:1011600092E00E94BF0361E08F81880D0E94B0036E
:1011700061E771E08EE392E00E944A0480913001C1
:1011800090913101019790933101809330018091CA
:101190008C0190918D01019690938D0180938C012B
:1011A000A816B90624F580902C0190902D01C81442
:1011B000D904E9F061E0882D0E94B00366E08EE377
:1011C00092E00E94BF0361E0882D840D0E94B0036D
:1011D00061E771E08EE392E00E944A0480912C0165
:1011E00090912D01019790932D0180932C01809176
:1011F0008A0190918B01019690938B0180938A01D3
:101200002816390624F580902E0190902F0108159C
:101210001905E9F061E0882D0E94B00366E08EE3D5
:1012200092E00E94BF0361E08981880D0E94B003B3
:1012300061E771E08EE392E00E944A0480912E0102
:1012400090912F01019790932F0180932E0180910F
:1012500030019091310197FD05C07092810160923B
:10126000800156CE80912C0190912D0197FFF5CFF2
:1012700080912E0190912F0197FFEFCF49CE809161
:10128000800190918101019709F0B1C080913001F6
:101290009091310197FDABC080912C0190912D016F
:1012A00097FDA5C080912E0190912F0197FD9FC0C1
:1012B0000E94DA0460E080E00E94B00361E771E020
:1012C0008EE392E00E944A040E940904809030015B
:1012D00090903101E814F904E9F061E0882D0E9452
:1012E000B00366E08EE392E00E94BF0361E08F816D
:1012F000880D0E94B00361E771E08EE392E00E94E6
:101300004A0480913001909131010197909331010D
:101310008093300180918C0190918D010196909382
:101320008D0180938C01A816B90624F580902C01BC
:1013300090902D01C814D904E9F061E0882D0E9435
:10134000B00366E08EE392E00E94BF0361E0882D67
:10135000840D0E94B00361E771E08EE392E00E9489
:101360004A0480912C0190912D01019790932D01B9
:1013700080932C0180918A0190918B01019690932A
:101380008B0180938A012816390624F580902E015E
:1013900090902F0108151905E9F061E0882D0E9451
:1013A000B00366E08EE392E00E94BF0361E08981B2
:1013B000880D0E94B00361E771E08EE392E00E9425
:1013C0004A0480912E0190912F01019790932F0153
:1013D00080932E011092810110928001109287015A
:1013E00010928601109283011092820191CD80911A
:1013F0007E0190917F01232B09F0ADC020918601E1
:1014000030918701232B09F4A6C0009709F0A3C0EF
:101410000E94E1038090300190903101E814F904BA
:10142000E9F061E0882D0E94B00366E08EE392E06F
:101430000E94BF0361E08F81880D0E94B00361E7C5
:1014400071E08EE392E00E944A0480913001909115
:1014500031010197909331018093300180918C018B
:1014600090918D01019690938D0180938C01A81627
:10147000B90624F580902C0190902D01C814D90450
:10148000E9F061E0882D0E94B00366E08EE392E00F
:101490000E94BF0361E0882D840D0E94B00361E7C4
:1014A00071E08EE392E00E944A0480912C019091B9
:1014B0002D01019790932D0180932C0180918A0139
:1014C00090918B01019690938B0180938A012F81DB
:1014D00038858217930724F180902E0190902F0178
:1014E00008151905E9F061E0882D0E94B00366E057
:1014F0008EE392E00E94BF0361E08981880D0E9423
:10150000B00361E771E08EE392E00E944A048091AB
:101510002E0190912F01019790932F0180932E011E
:101520008091300190913101E816F90679F08091AF
:101530002C0190912D01C816D90641F080912E0101
:1015400090912F010817190709F0E2CC70927F01E2
:1015500060927E01DDCC1092870110928601019786
:1015600009F0B0C00E94DA040E94090480903001A2
:1015700090903101E814F904E9F061E0882D0E94AF
:10158000B00366E08EE392E00E94BF0361E08F81CA
:10159000880D0E94B00361E771E08EE392E00E9443
:1015A0004A0480913001909131010197909331016B
:1015B0008093300180918C0190918D0101969093E0
:1015C0008D0180938C01A816B90624F580902C011A
:1015D00090902D01C814D904E9F061E0882D0E9493
:1015E000B00366E08EE392E00E94BF0361E0882DC5
:1015F000840D0E94B00361E771E08EE392E00E94E7
:101600004A0480912C0190912D01019790932D0116
:1016100080932C0180918A0190918B010196909387
:101620008B0180938A012816390624F580902E01BB
:1016300090902F0108151905E9F061E0882D0E94AE
:10164000B00366E08EE392E00E94BF0361E089810F
:10165000880D0E94B00361E771E08EE392E00E9482
:101660004A0480912E0190912F01019790932F01B0
:1016700080932E0110927F0110927E01809184014F
:10168000909185010196909385018093840160E09B
:1016900088E00E94B00365E671E08EE392E00E946C
:1016A0004A0460E08EE00E94B00360918401709172
:1016B00085018EE392E00E94D004709297016092BF
:1016C000960126CC0E94090480903001909031014F
:1016D000E814F904E9F061E0882D0E94B00366E0A7
:1016E0008EE392E00E94BF0361E08F81880D0E942B
:1016F000B00361E771E08EE392E00E944A048091BA
:101700003001909131010197909331018093300124
:1017100080918C0190918D01019690938D01809321
:101720008C01A816B90624F580902C0190902D010B
:10173000C814D904E9F061E0882D0E94B00366E086
:101740008EE392E00E94BF0361E0882D840D0E9429
:10175000B00361E771E08EE392E00E944A04809159
:101760002C0190912D01019790932D0180932C01D4
:1017700080918A0190918B01019690938B018093C7
:101780008A01281639060CF0C3CB80902E01909068
:101790002F010815190509F4BBCB61E0882D0E94C3
:1017A000B00366E08EE392E00E94BF0361E08981AE
:1017B000880D0E94B00361E771E08EE392E00E9421
:1017C0004A0480912E0190912F01019790932F014F
:1017D00080932E019DCB8F929F92AF92BF92CF921A
:1017E000DF92EF92FF92CF93DF93EC0168817981D2
:1017F0008A819B81611571058105910521F464E25F
:1018000079ED8BE597E02DE133EF41E050E00E9468
:101810008F0C49015A019B01AC01A7EAB1E40E9477
:10182000AE0C6B017C01ACEEB4EFA50194010E94FB
:10183000BC0CC60ED71EE81EF91EF7FE06C081E0DE
:10184000C81AD108E10880E8F80AC882D982EA8279
:10185000FB82C701B6019F77DF91CF91FF90EF9098
:10186000DF90CF90BF90AF909F908F9008958F9210
:101870009F92AF92BF92CF92DF92EF92FF926091D0
:101880003A0170913B0180913C0190913D016115BD
:1018900071058105910521F464E279ED8BE597E00E
:1018A0002DE133EF41E050E00E948F0C49015A01D5
:1018B0009B01AC01A7EAB1E40E94AE0C6B017C0174
:1018C000ACEEB4EFA50194010E94BC0CC60ED71E6D
:1018D000E81EF91EF7FE06C081E0C81AD108E1082B
:1018E00080E8F80AC0923A01D0923B01E0923C01B4
:1018F000F0923D01C701B6019F77FF90EF90DF9016
:10190000CF90BF90AF909F908F90089560933A01D1
:1019100070933B0180933C0190933D010895052E07
:1019200097FB1EF400940E94A60C57FD07D00E945E
:10193000C10C07FC03D04EF40C94A60C50954095B6
:10194000309521953F4F4F4F5F4F0895909580956B
:10195000709561957F4F8F4F9F4F08950E94E30CC4
:10196000A59F900DB49F900DA49F800D911D1124F3
:101970000895B7FF0C94AE0C0E94AE0C821B930B23
:101980000895A1E21A2EAA1BBB1BFD010DC0AA1FC0
:10199000BB1FEE1FFF1FA217B307E407F50720F0D8
:1019A000A21BB30BE40BF50B661F771F881F991F53
:1019B0001A9469F760957095809590959B01AC019C
:1019C000BD01CF010895A29FB001B39FC001A39FA5
:1019D000700D811D1124911DB29F700D811D112468
:1019E000911D0895EE0FFF1F0590F491E02D0994CD
:1019F000F894FFCF0E0A0E040E150A0A00000E0A14
:101A00000E041F040A11000000000000000E0A0E60
:101A100004051F140A1200000E0A0E051F140A12F4
:101A20000F000F000F001F1F1F1F1F1F1F1F010090
:101A3000000000000000FE015E018B014B02BC01B2
:101A40009A01AE0100000000BF035E016C026B0250
:101A50000D0A0053544152540053434F5245005312
:101A6000434F52453A200047414D45204F5645527D
:021A7000000074
:107E0000112484B714BE81FFF0D085E080938100F7
:107E100082E08093C00088E18093C10086E0809377
:107E2000C20080E18093C4008EE0C9D0259A86E02C
:107E300020E33CEF91E0309385002093840096BBD3
:107E4000B09BFECF1D9AA8958150A9F7CC24DD24C4
:107E500088248394B5E0AB2EA1E19A2EF3E0BF2EE7
:107E6000A2D0813461F49FD0082FAFD0023811F036
:107E7000013811F484E001C083E08DD089C08234E0
:107E800011F484E103C0853419F485E0A6D080C0E4
:107E9000853579F488D0E82EFF2485D0082F10E0AE
:107EA000102F00270E291F29000F111F8ED06801E7
:107EB0006FC0863521F484E090D080E0DECF843638
:107EC00009F040C070D06FD0082F6DD080E0C81688
:107ED00080E7D80618F4F601B7BEE895C0E0D1E017
:107EE00062D089930C17E1F7F0E0CF16F0E7DF06D8
:107EF00018F0F601B7BEE89568D007B600FCFDCFD4
:107F0000A601A0E0B1E02C9130E011968C91119780
:107F100090E0982F8827822B932B1296FA010C0160
:107F200087BEE89511244E5F5F4FF1E0A038BF0790
:107F300051F7F601A7BEE89507B600FCFDCF97BE46
:107F4000E89526C08437B1F42ED02DD0F82E2BD052
:107F50003CD0F601EF2C8F010F5F1F4F84911BD097
:107F6000EA94F801C1F70894C11CD11CFA94CF0C13
:107F7000D11C0EC0853739F428D08EE10CD085E9AC
:107F80000AD08FE07ACF813511F488E018D01DD067
:107F900080E101D065CF982F8091C00085FFFCCF94
:107FA0009093C60008958091C00087FFFCCF809118
:107FB000C00084FD01C0A8958091C6000895E0E648
:107FC000F0E098E1908380830895EDDF803219F02E
:107FD00088E0F5DFFFCF84E1DECF1F93182FE3DFCA
:107FE0001150E9F7F2DF1F91089580E0E8DFEE27F6
:047FF000FF270994CA
:027FFE00040479
:00000001FF
